:020000040000FA
:1000000002EF00F00F0EC16E0F01946A5D6B8B6AF8
:1000100094849482BC0EBB6E97849786BD84BD8603
:100020009788978ABD88BD8A5D0E906EBE6E9E9041
:100030009E92BA82BA849EA21BEF00F0949294948E
:10004000896A5B6B5B815B83926A0F01928092820B
:10005000C26AC280050EC26EC16AC06AC08EC094F8
:10006000C082C0908A6A5C6B936A8C6A5E6B956A88
:10007000040E0D6E500E0E6E280E0F6E630E136E74
:10008000146E116A63EC00F00B6A0C6A2EEC01F03E
:10009000FFEC00F013C011F055EC01F042EC01F060
:1000A000FFEC00F014C011F055EC01F046EF00F049
:1000B000F926300C310C320C330C340C350C360C68
:1000C000370C380C390C8C988C9A956ABBEC00F084
:1000D000030EA8EC00F0BBEC00F0030EA8EC00F05F
:1000E000F8EC00F0F8EC00F0F8EC00F0030EA8ECEF
:1000F00000F0020EA8EC00F09BEC00F098EC00F091
:1001000095EC00F01200020E9EEF00F0040E9EEF40
:1001100000F0100E9EEF00F0C00E9EEF00F00E0EED
:100120009EEF00F0060E9EEF00F0010E9EEF00F035
:100130000C0E9EEF00F0280E9EEF00F0166E1638A3
:10014000166E1650A8EC00F01638A8EC00F012005D
:100150000F0B156E8C50F00B15108C6EB1EC00F07F
:1001600012008C88C9EC00F08C9812008C8A9EECEE
:1001700000F08C9A1200B60E056E0C0E066E052E5F
:10018000C3EF00F0062EBFEF00F0C8EF00F0000054
:100190001200AE0E056E050E066E052ED1EF00F0B4
:1001A000062ECDEF00F0D6EF00F0000012000C0E8E
:1001B000056E460E066E040E076E052EE1EF00F08A
:1001C000062EE4EF00F0072EDDEF00F0E9EF00F07F
:1001D00000001200DE0E056E2F0E066E052EF2EFE9
:1001E00000F0062EEEEF00F0F7EF00F00000120036
:1001F000300E056E052EFAEF00F0000012000AC066
:1002000003F00A0E035C04E3022A036E01EF01F01F
:100210000A0E025C04E3012A026E08EF01F00A0EE6
:10022000015C04E3002A016E0FEF01F0000E096289
:100230001CEF01F022EF01F0F60E0326022A090658
:1002400001EF01F01200186A11C019F00A0E195CD2
:1002500004E3182A196E26EF01F01200040EC26E94
:10026000010EC26E006A016A026A036A096A0A6ABA
:10027000C282C2B239EF01F0C3CF0AF0C4CF09F095
:1002800012901200C26A050EC26E006A016A026A0A
:10029000036A096A0A6AC282C2B24CEF01F0C3CF94
:1002A0000AF0C4CF09F012801200106A01C010F0E9
:1002B00010425EEC01F073EC01F012000D5001648D
:1002C00069EF01F064EF01F0105011240E60116E1F
:1002D00012001050115C02E3116E1200020E016058
:1002E0000FC011F0120023EC01F01AA018C017F093
:1002F0001AB019C017F01A2A010E176293EF01F015
:10030000310E1AA08BEF01F01D6E000E1C6E4B0E0D
:100310001B6E58EF02F0310E1E6E080E1B26D8B071
:100320001C2A58EF02F0040E1762AAEF01F0340EF7
:100330001AA0A2EF01F01D6E010E1C6E2C0E1B6E9A
:1003400058EF02F0340E1E6E1E0E1B26D8B01C2A6B
:1003500058EF02F0070E1762C1EF01F0370E1AA036
:10036000B9EF01F01D6E020E1C6E0D0E1B6E58EFE4
:1003700002F0370E1E6E350E1B26D8B01C2A58EF21
:1003800002F0000E1762D0EF01F0300E1AA0CCEF91
:1003900001F01D6E1C6A1B6A300E1E6E58EF02F0D3
:1003A000030E1762E7EF01F0330E1AA0DFEF01F042
:1003B0001D6E000E1C6EE10E1B6E58EF02F0330E28
:1003C0001E6E170E1B26D8B01C2A58EF02F0060E20
:1003D0001762FEEF01F0360E1AA0F6EF01F01D6E67
:1003E000010E1C6EC20E1B6E58EF02F0360E1E6E12
:1003F0002D0E1B26D8B01C2A58EF02F0090E1762EA
:1004000015EF02F0390E1AA00DEF02F01D6E020E6C
:100410001C6EA30E1B6E58EF02F0390E1E6E440EBA
:100420001B26D8B01C2A58EF02F0020E17622CEFE0
:1004300002F0320E1AA024EF02F01D6E000E1C6EA8
:10044000960E1B6E58EF02F0320E1E6E0F0E1B261C
:10045000D8B01C2A58EF02F0050E176243EF02F0E5
:10046000350E1AA03BEF02F01D6E010E1C6E770ECA
:100470001B6E58EF02F0350E1E6E260E1B26D8B0EE
:100480001C2A58EF02F0080E176258EF02F0380EDF
:100490001AA052EF02F01D6E020E1C6E580E1B6E5B
:1004A00058EF02F0380E1E6E3C0E1B26D8B01C2AE8
:1004B0001AA298EF02F012A060EF02F07DEF02F0B6
:1004C0001A6A83EC00F01D50B6EC00F01E50B6EC3A
:1004D00000F09798979A1BB097881BB2978A1B4297
:1004E0001B421B9E1B9C1CB01B8C1CB21B8E1B50EA
:1004F000906E11C013F098EF02F01A6A8CEC00F0C5
:100500001D50B6EC00F01E50B6EC00F0BD98BD9A40
:100510001BB0BD881BB2BD8A1B421B421B9E1B9C8D
:100520001CB01B8C1CB21B8E1B50BE6E11C014F075
:080530001AB073EF01F0120094
:020538000000C1
:020000040030CA
:0100000001FE
:0100010023DB
:0100020059A4
:010003003CC0
:010005009169
:010006008178
:010008000FE8
:01000900C036
:01000A000FE6
:01000B00E014
:01000C000FE4
:01000D0040B2
:00000001FF
