:020000040000FA
:1000000002EF00F00F0EC16E0F01896A5B6B5B811E
:10001000926A92800F01C26AC280C16AC06AC08EB1
:10002000C094C082C0908C6A5E6B956AF29AF2941A
:10003000D58ED59CD58AD598D5866DEC00F0006A12
:10004000016A026A036A096A0A6AD76AD66A046A96
:10005000C282C2B229EF00F0310E046ED890C350B4
:100060000A22C4500922D890042E2FEF00F0C30EAC
:10007000C45CC46E500EC35CC36E09EC01F08DEC21
:1000800000F0004462EC00F0C0EC00F0014462ECCF
:1000900000F0C0EC00F02E0EC0EC00F0024462EC68
:1000A00000F0C0EC00F0034462EC00F0C0EC00F0A3
:1000B000DF0EC0EC00F0430EC0EC00F0E1EC00F00D
:1000C0001FEF00F0F926300C310C320C330C340CDD
:1000D000350C360C370C380C390C8C988C9A956A88
:1000E000C5EC00F0030EB2EC00F0C5EC00F0030E1E
:1000F000B2EC00F002EC01F002EC01F002EC01F0D5
:10010000030EB2EC00F0020EB2EC00F0A5EC00F031
:10011000A2EC00F09FEC00F01200020EA8EF00F03D
:10012000040EA8EF00F0100EA8EF00F0C00EA8EF2C
:1001300000F00E0EA8EF00F0060EA8EF00F0010E82
:10014000A8EF00F00C0EA8EF00F0280EA8EF00F0CA
:10015000116E1138116E1150B2EC00F01138B2EC82
:1001600000F012000F0B106E8C50F00B10108C6E04
:10017000BBEC00F012008C88D3EC00F08C981200DD
:100180008C8AA8EC00F08C9A1200B60E056E0C0E4C
:10019000066E052ECDEF00F0062EC9EF00F0D2EF6F
:1001A00000F000001200AE0E056E050E066E052E64
:1001B000DBEF00F0062ED7EF00F0E0EF00F00000DC
:1001C00012000C0E056E460E066E040E076E052E0E
:1001D000EBEF00F0062EEEEF00F0072EE7EF00F059
:1001E000F3EF00F000001200DE0E056E2F0E066E1B
:1001F000052EFCEF00F0062EF8EF00F001EF01F005
:1002000000001200300E056E052E04EF01F0000014
:1002100012000A50036E0A0E035C04E3022A036E06
:100220000BEF01F00A0E025C04E3012A026E12EFEA
:1002300001F00A0E015C04E3002A016E19EF01F0DF
:10024000000E096226EF01F02CEF01F0F60E0326F6
:0A025000022A09060BEF01F012006C
:02025A000000A2
:020000040030CA
:0100000001FE
:0100010023DB
:0100020059A4
:010003003CC0
:010005009169
:010006008178
:010008000FE8
:01000900C036
:01000A000FE6
:01000B00E014
:01000C000FE4
:01000D0040B2
:00000001FF
