:020000040000FA
:1000000002EF00F00F0EC16E8A6A5C6B936A896A18
:100010005B6B926A8C6A5E6BFF0E956E839E839C0F
:10002000839A8398806A816A836A016A006A3F0EB4
:10003000006E016E20EF00F0024487EC00F0006ECD
:10004000809A8098809680940050816E808092EC97
:1000500000F080900150816E808292EF00F08092DB
:1000600034EF00F020EF00F00050016E80888086B1
:10007000808483B640EF00F0010E006E83EF00F045
:1000800083B447EF00F0020E006E83EF00F083B000
:100090004EEF00F0030E006E83EF00F0808A809830
:1000A00083B657EF00F0040E006E83EF00F083B4C8
:1000B0005EEF00F0050E006E83EF00F083B065EF99
:1000C00000F0060E006E83EF00F08088809683B605
:1000D0006EEF00F0070E006E83EF00F083B475EF53
:1000E00000F0080E006E83EF00F083B07CEF00F0AC
:1000F000090E006E83EF00F08086809483B483EF56
:1001000000F0000E006E8084026E1CEF00F0F926F5
:100110003F0C060C5B0C4F0C660C6D0C7D0C070C39
:100120007F0C670C6E0E036E180E046E032E9AEF92
:1001300000F0042E96EF00F09EEF00F00000120099
:020140000000BD
:020000040030CA
:0100000001FE
:0100010023DB
:0100020059A4
:010003003CC0
:010005009169
:010006008178
:010008000FE8
:01000900C036
:01000A000FE6
:01000B00E014
:01000C000FE4
:01000D0040B2
:00000001FF
