:020000040000FA
:1000000002EF00F00F0EC16E0F01896A5B6B926AFE
:1000100092888C6A5E6B956AD58ED59CD58AD59868
:10002000D5860B6A6BEC00F0E86A036A026A016A23
:10003000006AD76AD66A1A0E056E8B0E066E070E18
:10004000076E052E25EF00F0062E28EF00F0072E94
:1000500021EF00F02CEF00F0000000000000000095
:10006000D6500A6ED750096E9DEC00F0200EBEEC03
:1000700000F0200EBEEC00F0200EBEEC00F0200ED2
:10008000BEEC00F007EC01F0004460EC00F0BEECC8
:1000900000F0014460EC00F0BEEC00F0024460ECC3
:1000A00000F0BEEC00F0034460EC00F0BEEC00F0A9
:1000B000480EBEEC00F07A0EBEEC00F014EF00F03B
:1000C000F926300C310C320C330C340C350C360C58
:1000D000370C380C390C8C988C9A956AC3EC00F06C
:1000E000030EB0EC00F0C3EC00F0030EB0EC00F037
:1000F00000EC01F000EC01F000EC01F0030EB0ECBC
:1001000000F0020EB0EC00F0A3EC00F0A0EC00F068
:100110009DEC00F01200020EA6EF00F0040EA6EF18
:1001200000F0100EA6EF00F0C00EA6EF00F00E0ECD
:10013000A6EF00F0060EA6EF00F0010EA6EF00F00D
:100140000C0EA6EF00F0280EA6EF00F00D6E0D3895
:100150000D6E0D50B0EC00F00D38B0EC00F0120058
:100160000F0B0C6E8C50F00B0C108C6EB9EC00F079
:1001700012008C88D1EC00F08C9812008C8AA6ECCE
:1001800000F08C9A1200B60E056E0C0E066E052E4F
:10019000CBEF00F0062EC7EF00F0D0EF00F000002C
:1001A0001200AE0E056E050E066E052ED9EF00F09C
:1001B000062ED5EF00F0DEEF00F0000012000C0E6E
:1001C000056E460E066E040E076E052EE9EF00F072
:1001D000062EECEF00F0072EE5EF00F0F1EF00F057
:1001E00000001200DE0E056E2F0E066E052EFAEFD1
:1001F00000F0062EF6EF00F0FFEF00F00000120016
:10020000300E056E052E02EF01F0000012000A50BC
:10021000036E0A0E035C04E3022A036E09EF01F089
:100220000A0E025C04E3012A026E10EF01F00A0ECE
:10023000015C04E3002A016E17EF01F0000E096271
:1002400024EF01F02AEF01F0F60E0326022A090638
:0602500009EF01F01200AD
:020256000000A6
:020000040030CA
:0100000001FE
:0100010023DB
:0100020059A4
:010003003CC0
:010005009169
:010006008178
:010008000FE8
:01000900C036
:01000A000FE6
:01000B00E014
:01000C000FE4
:01000D0040B2
:00000001FF
