:020000040000FA
:0400000011EF00F00C
:020004000000FA
:08001800F2B45CEF00F036EFDA
:1000200000F00F0EC16E0F018A6A5C6B0F0E936EAB
:10003000896A5B6B926A8C6A5E6B956AF288F2924F
:10004000F19CF086F090F19AF088F092F198F1949A
:10005000F180F29AF294D58ED59CD59AD598D58612
:10006000F28E67EC00F0F28A33EF00F003EC01F05F
:1000700087EC00F0200EBAEC00F0200EBAEC00F095
:10008000200EBAEC00F0200EBAEC00F0200EBAEC14
:1000900000F00D50BAEC00F04B0EBAEC00F0480E38
:1000A000BAEC00F07A0EBAEC00F0F292F090F09216
:1000B0008A6AF28AF28E10000E6E8978F294F28EBD
:1000C0000850D76E0950D66E0E50F28A10008C98E8
:1000D0008C9A956ABFEC00F0030EACEC00F0BFEC1C
:1000E00000F0030EACEC00F0FCEC00F0FCEC00F0D7
:1000F000FCEC00F0030EACEC00F0020EACEC00F0F7
:100100009FEC00F09CEC00F099EC00F01200020E65
:10011000A2EF00F0040EA2EF00F0100EA2EF00F02C
:10012000C00EA2EF00F00E0EA2EF00F0060EA2EF3E
:1001300000F0010EA2EF00F00C0EA2EF00F0280E6E
:10014000A2EF00F0106E1038106E1050ACEC00F002
:100150001038ACEC00F012000F0B0F6E8C50F00B4F
:100160000F108C6EB5EC00F012008C88CDEC00F016
:100170008C9812008C8AA2EC00F08C9A1200B60EB9
:10018000046E0C0E056E042EC7EF00F0052EC3EFB3
:1001900000F0CCEF00F000001200AE0E046E050E71
:1001A000056E042ED5EF00F0052ED1EF00F0DAEF4A
:1001B00000F0000012000C0E046E460E056E040ED8
:1001C000066E042EE5EF00F0052EE8EF00F0062E97
:1001D000E1EF00F0EDEF00F000001200DE0E046E23
:1001E0002F0E056E042EF6EF00F0052EF2EF00F054
:1001F000FBEF00F000001200300E046E042EFEEF44
:1002000000F000001200F29E0C6AF00E8A6E8A98CE
:1002100081B014EF01F00C80FA0E086E450E096EE5
:10022000310E0B6EB1EF01F081B220EF01F00C80C6
:10023000FE0E086EA80E096E340E0B6EB1EF01F0C3
:1002400081B42CEF01F00C80FF0E086E400E096E99
:10025000370E0B6EB1EF01F081B634EF01F00C8078
:10026000440E0B6EB1EF01F08A888A9E81B03FEF99
:1002700001F00C80410E0B6E0C80B1EF01F081B2E9
:1002800047EF01F00C80420E0B6EB1EF01F081B42C
:100290004FEF01F00C80300E0B6EB1EF01F081B624
:1002A00057EF01F00C80310E0B6EB1EF01F08A8E2A
:1002B0008A9C81B065EF01F00C80FE0E086E220E64
:1002C000096E330E0B6EB1EF01F081B271EF01F0E8
:1002D0000C80FF0E086E230E096E360E0B6EB1EF0A
:1002E00001F081B47DEF01F00C80FF0E086E710EFD
:1002F000096E390E0B6EB1EF01F081B685EF01F09A
:100300000C80420E0B6EB1EF01F08A8C8A9A81B09C
:1003100093EF01F00C80FD0E086E2F0E096E320E69
:100320000B6EB1EF01F081B29FEF01F00C80FE0E79
:10033000086EED0E096E350E0B6EB1EF01F081B453
:10034000A9EF01F00C80FF0E086E5B0E096E380EEF
:100350000B6E81B6B1EF01F00C80430E0B6EB1EF66
:1003600001F00B500D6EEEEC00F0EEEC00F08A6A3E
:02037000120079
:020000040030CA
:0100000001FE
:0100010023DB
:0100020059A4
:010003003CC0
:010005009169
:010006008178
:010008000FE8
:01000900C036
:01000A000FE6
:01000B00E014
:01000C000FE4
:01000D0040B2
:00000001FF
