:020000040000FA
:1000000002EF00F00F0EC16E0F01896A5B6B5B811E
:100010005B83926A928092820F01C26AC280050E4F
:10002000C26EC16AC06AC08EC094C082C0908C6A21
:100030005E6B956AF29AF294D58ED59CD58AD59846
:10004000D5867CEC00F03CEC01F018EC01F09CEC67
:1000500000F0004471EC00F0CFEC00F0014471ECD2
:1000600000F0CFEC00F0024471EC00F0CFEC00F0B7
:10007000034471EC00F0CFEC00F0200ECFEC00F068
:10008000200ECFEC00F0200ECFEC00F0200ECFECD5
:1000900000F0200ECFEC00F0200ECFEC00F0200E90
:1000A000CFEC00F0200ECFEC00F04FEC01F018EC9C
:1000B00001F0004471EC00F0CFEC00F0014471EC71
:1000C00000F0CFEC00F0024471EC00F0CFEC00F057
:1000D000034471EC00F0CFEC00F0F0EC00F023EF03
:1000E00000F0F926300C310C320C330C340C350C8A
:1000F000360C370C380C390C8C988C9A956AD4ECE9
:1001000000F0030EC1EC00F0D4EC00F0030EC1ECE3
:1001100000F011EC01F011EC01F011EC01F0030E14
:10012000C1EC00F0020EC1EC00F0B4EC00F0B1EC58
:1001300000F0AEEC00F01200020EB7EF00F0040E7B
:10014000B7EF00F0100EB7EF00F0C00EB7EF00F001
:100150000E0EB7EF00F0060EB7EF00F0010EB7EF8E
:1001600000F00C0EB7EF00F0280EB7EF00F00E6EA7
:100170000E380E6E0E50C1EC00F00E38C1EC00F0DF
:1001800012000F0B0D6E8C50F00B0D108C6ECAEC24
:1001900000F012008C88E2EC00F08C9812008C8A3F
:1001A000B7EC00F08C9A1200B60E056E0C0E066EBF
:1001B000052EDCEF00F0062ED8EF00F0E1EF00F0A6
:1001C00000001200AE0E056E050E066E052EEAEF5B
:1001D00000F0062EE6EF00F0EFEF00F00000120056
:1001E0000C0E056E460E066E040E076E052EFAEF17
:1001F00000F0062EFDEF00F0072EF6EF00F002EF04
:1002000001F000001200DE0E056E2F0E066E052EA8
:100210000BEF01F0062E07EF01F010EF01F00000E8
:100220001200300E056E052E13EF01F000001200D3
:100230000A50036E0A0E035C04E3022A036E1AEFEF
:1002400001F00A0E025C04E3012A026E21EF01F0C4
:100250000A0E015C04E3002A016E28EF01F0000E93
:10026000096235EF01F03BEF01F0F60E0326022A9A
:1002700009061AEF01F01200040EC26E010EC26EE2
:10028000006A016A026A036A096A0A6AC282C2B221
:1002900047EF01F0C3CF0AF0C4CF09F01200C26AE1
:1002A000050EC26E006A016A026A036A096A0A6A76
:1002B000C282C2B259EF01F0C3CF0AF0C4CF09F035
:0202C00012002A
:0202C20000003A
:020000040030CA
:0100000001FE
:0100010023DB
:0100020059A4
:010003003CC0
:010005009169
:010006008178
:010008000FE8
:01000900C036
:01000A000FE6
:01000B00E014
:01000C000FE4
:01000D0040B2
:00000001FF
