:020000040000FA
:040000000EEF00F00F
:020004000000FA
:080018003EEF00F00F0EC16E77
:100020000F018A6A5C6B0F0E936E8C6A5E6B956A29
:100030000F019482BC0EBB6E978497869788978A2F
:100040005D0E906E9E92BA82BA849EA225EF00F059
:100050009492F288F292F19CF086F090F19AF088F6
:10006000F092F198F28EF29AF294D58ED59CD58AC0
:10007000D598D58646EC00F03CEF00F0E2EC00F0BD
:10008000F292F090F0928A6AF28E10008C988C9A1C
:10009000956A9EEC00F0030E8BEC00F09EEC00F0F5
:1000A000030E8BEC00F0DBEC00F0DBEC00F0DBECA3
:1000B00000F0030E8BEC00F0020E8BEC00F07EECF7
:1000C00000F07BEC00F078EC00F01200020E81EF03
:1000D00000F0040E81EF00F0100E81EF00F0C00E72
:1000E00081EF00F00E0E81EF00F0060E81EF00F0C0
:1000F000010E81EF00F00C0E81EF00F0280E81EF71
:1001000000F0046E0438046E04508BEC00F00438E8
:100110008BEC00F012000F0B036E8C50F00B0310F1
:100120008C6E94EC00F012008C88ACEC00F08C9893
:1001300012008C8A81EC00F08C9A1200B60E056ECB
:100140000C0E066E052EA6EF00F0062EA2EF00F0B4
:10015000ABEF00F000001200AE0E056E050E066E4D
:10016000052EB4EF00F0062EB0EF00F0B9EF00F06E
:10017000000012000C0E056E460E066E040E076E91
:10018000052EC4EF00F0062EC7EF00F0072EC0EFDB
:1001900000F0CCEF00F000001200DE0E056E2F0E16
:1001A000066E052ED5EF00F0062ED1EF00F0DAEF47
:1001B00000F000001200300E056E052EDDEF00F09D
:1001C00000001200F29E0C2A8A988A8A8A8C8A8EF3
:1001D00081B0FEEF00F0310E0CA0F6EF00F00F6ED4
:1001E000000E0E6E4B0E0D6ED7EF01F0310E106E3D
:1001F000080E0D26D8B00E2AD7EF01F081B214EF09
:1002000001F0340E0CA00CEF01F00F6E010E0E6E1B
:100210002C0E0D6ED7EF01F0340E106E1E0E0D2653
:10022000D8B00E2AD7EF01F081B42AEF01F0370ED3
:100230000CA022EF01F00F6E020E0E6E0D0E0D6E71
:10024000D7EF01F0370E106E350E0D26D8B00E2AFE
:10025000D7EF01F08A888A9E81B033EF01F0410E1A
:100260000F6ED7EF01F081B23AEF01F0420E0F6E40
:10027000D7EF01F081B448EF01F0300E0CA044EF4D
:1002800001F00F6E0E6A0D6A300E106ED7EF01F09E
:100290008A8E8A9C81B060EF01F0330E0CA058EF7B
:1002A00001F00F6E000E0E6EE10E0D6ED7EF01F035
:1002B000330E106E170E0D26D8B00E2AD7EF01F0B0
:1002C00081B276EF01F0360E0CA06EEF01F00F6EEA
:1002D000010E0E6EC20E0D6ED7EF01F0360E106ECF
:1002E0002D0E0D26D8B00E2AD7EF01F081B48CEF79
:1002F00001F0390E0CA084EF01F00F6E020E0E6EAD
:10030000A30E0D6ED7EF01F0390E106E440E0D26C0
:10031000D8B00E2AD7EF01F08A8C8A9A81B0A4EF68
:1003200001F0320E0CA09CEF01F00F6E000E0E6E6D
:10033000960E0D6ED7EF01F0320E106E0F0E0D26D9
:10034000D8B00E2AD7EF01F081B2BAEF01F0350E26
:100350000CA0B2EF01F00F6E010E0E6E770E0D6E57
:10036000D7EF01F0350E106E260E0D26D8B00E2AEE
:10037000D7EF01F081B4D0EF01F0380E0CA0C8EF38
:1003800001F00F6E020E0E6E580E0D6ED7EF01F0DB
:10039000380E106E3C0E0D26D8B00E2AD7EF01F0A5
:1003A00081B6D7EF01F0430E0F6ED7EF01F00CA22C
:1003B000F5EF01F00C6A66EC00F00F5099EC00F0DC
:1003C000105099EC00F09798979A0DB097880DB25D
:1003D000978A0D420D420D9E0D9C0EB00D8C0EB2F3
:1003E0000D8E0D50906EBAEC00F0BAEC00F01200D9
:020000040030CA
:0100000001FE
:0100010023DB
:0100020059A4
:010003003CC0
:010005009169
:010006008178
:010008000FE8
:01000900C036
:01000A000FE6
:01000B00E014
:01000C000FE4
:01000D0040B2
:00000001FF
