:020000040000FA
:1000000002EF00F0620ED36E60966286896A5B6BC7
:10001000FF0E926E8A6A5C6B936A8B6A5D6B946A60
:100020008C6A5E6B956A8D6A5F6B966A000E006ED5
:10003000010E016E000E800E026E005080622DEFE8
:1000400000F002460142025001260152816E00502A
:10005000806218EF00F021EF00F080A03EEF00F08A
:1000600002460250816E0050806239EF00F018EFB6
:1000700000F080A018EF00F030EF00F001420150D6
:10008000816E0050806247EF00F018EF00F080A012
:080090003EEF00F018EF00F054
:02009800000066
:020000040030CA
:0100000000FF
:0100010028D6
:0100020059A4
:010003003CC0
:0100050051A9
:010006008079
:010008000FE8
:01000900C036
:01000A000FE6
:01000B00E014
:01000C000FE4
:01000D0040B2
:00000001FF
