:020000040000FA
:040000000EEF00F00F
:020004000000FA
:0800180026EF00F00F0EC16E8F
:100020000F018A6A5C6B0F0E936E8C6A5E6B956A29
:10003000F288F292F19CF086F090F19AF088F092BA
:10004000F198F28E45EC00F024EF00F0E1EC00F0C6
:10005000420E036234EF00F077EC00F06BEC00F03E
:1000600065EC00F03FEF00F0410E03623CEF00F062
:100070006EEC00F03FEF00F0035098EC00F0F292CD
:10008000F090F0928A6AF28E10008C988C9A956AA1
:100090009DEC00F0030E8AEC00F09DEC00F0030EE6
:1000A0008AEC00F0DAEC00F0DAEC00F0DAEC00F0C8
:1000B000030E8AEC00F0020E8AEC00F07DEC00F0FA
:1000C0007AEC00F077EC00F01200020E80EF00F006
:1000D000040E80EF00F0100E80EF00F0C00E80EFF5
:1000E00000F00E0E80EF00F0060E80EF00F0010E23
:1000F00080EF00F00C0E80EF00F0280E80EF00F093
:10010000056E0538056E05508AEC00F005388AEC5E
:1001100000F012000F0B046E8C50F00B04108C6E6C
:1001200093EC00F012008C88ABEC00F08C9812007D
:100130008C8A80EC00F08C9A1200B60E066E0C0EC3
:10014000076E062EA5EF00F0072EA1EF00F0AAEF34
:1001500000F000001200AE0E066E050E076E062EB1
:10016000B3EF00F0072EAFEF00F0B8EF00F00000A3
:1001700012000C0E066E460E076E040E086E062E5A
:10018000C3EF00F0072EC6EF00F0082EBFEF00F01F
:10019000CBEF00F000001200DE0E066E2F0E076E91
:1001A000062ED4EF00F0072ED0EF00F0D9EF00F0CC
:1001B00000001200300E066E062EDCEF00F000008C
:1001C0001200F29E026A8A988A8A8A8C8A8E81B08C
:1001D000EFEF00F00280310E016E6CEF01F081B2A2
:1001E000F7EF00F00280340E016E6CEF01F081B485
:1001F000FFEF00F00280370E016E6CEF01F081B668
:1002000007EF01F00280440E016E6CEF01F08A8866
:100210008A9E81B012EF01F00280410E016E0280D1
:100220006CEF01F081B21AEF01F00280420E016E14
:100230006CEF01F081B422EF01F00280300E016E0C
:100240006CEF01F081B62AEF01F00280310E016EF1
:100250006CEF01F08A8E8A9C81B034EF01F002804D
:10026000330E016E6CEF01F081B23CEF01F00280C1
:10027000360E016E6CEF01F081B444EF01F00280A4
:10028000390E016E6CEF01F081B64CEF01F0028087
:10029000420E016E6CEF01F08A8C8A9A81B056EFA3
:1002A00001F00280320E016E6CEF01F081B25EEF60
:1002B00001F00280350E016E6CEF01F081B464EF45
:1002C00001F00280380E016E81B66CEF01F0028001
:1002D000430E016E6CEF01F00150036ECCEC00F0A8
:0602E000CCEC00F012005E
:020000040030CA
:0100000001FE
:0100010023DB
:0100020059A4
:010003003CC0
:010005009169
:010006008178
:010008000FE8
:01000900C036
:01000A000FE6
:01000B00E014
:01000C000FE4
:01000D0040B2
:00000001FF
