:020000040000FA
:1000000002EF00F00F0EC16E8A6A5C6B936A896A18
:100010005B6B926A3F0E0A6E060E0B6E5B0E0C6EE9
:100020004F0E0D6E660E0E6E6D0E0F6E7D0E106E07
:10003000070E116E7F0E126E670E136E806A816A54
:10004000056A046A016A026A036A110E006E016E93
:100050000A0E015C04E3022A016E28EF00F00A0E8A
:10006000025C04E3032A026E2FEF00F0000E02622E
:100070003CEF00F00A50056E010E026242EF00F004
:100080000B50056E020E026248EF00F00C50056E38
:10009000030E02624EEF00F00D50056E040E026278
:1000A00054EF00F00E50056E050E02625AEF00F09C
:1000B0000F50056E060E026260EF00F01050056EE4
:1000C000070E026266EF00F01150056E080E026224
:1000D0006CEF00F01250056E090E026272EF00F034
:1000E0001350056E000E016278EF00F00A50046EA6
:1000F000010E01627EEF00F00B50046E020E0162F1
:1001000084EF00F00C50046E030E01628AEF00F0E1
:100110000D50046E040E016290EF00F00E50046E5C
:10012000050E016296EF00F00F50046E060E01629C
:100130009CEF00F01050046E070E0162A2EF00F079
:100140001150046E080E0162A8EF00F01250046E08
:10015000090E0162AEEF00F01350046E0450816E80
:100160008086BCEC00F080960550816E8088BCECE7
:1001700000F08098AEEF00F06E0E066E180E076E5F
:10018000062EC4EF00F0072EC0EF00F0C8EF00F01D
:040190000000120059
:02019400000069
:020000040030CA
:0100000001FE
:0100010023DB
:0100020059A4
:010003003CC0
:010005009169
:010006008178
:010008000FE8
:01000900C036
:01000A000FE6
:01000B00E014
:01000C000FE4
:01000D0040B2
:00000001FF
