:020000040000FA
:1000000002EF00F00F0EC16E8A6A5C6B936A896A18
:100010005B6B926AE86A806A816A016A026A036AB3
:10002000150E006E016E0A0E015C04E3022A016ED9
:1000300013EF00F00A0E025C04E3032A026E1AEFCB
:1000400000F0025044EC00F0816E8086809834EC21
:1000500000F0015044EC00F0816E8096808834EC12
:1000600000F0809821EF00F00D0E046E460E056E34
:10007000040E066E042E3EEF00F0052E41EF00F058
:10008000062E3AEF00F01200F9263F0C060C5B0C2E
:0E0090004F0C660C6D0C7D0C070C7F0C670C82
:02009E00000060
:020000040030CA
:0100000001FE
:0100010023DB
:0100020059A4
:010003003CC0
:010005009169
:010006008178
:010008000FE8
:01000900C036
:01000A000FE6
:01000B00E014
:01000C000FE4
:01000D0040B2
:00000001FF
